:060000000200190200CC11
:01000B0032C2
:030013000200BA2E
:20007200750814750900750A00750B01750C02750D03750E04750F057510067511077512A8
:2000920008751309751410751511751612751713751814751915751A16751B17751C187597
:0800B2001D19751E2002001645
:030016000200DD08
:2000BA00C0E0C0D0150874FFB508021509D0D0D0E032C0E0C0D00508E4B508020509D0D079
:2000DA00D0E032D2AFD2AAD2A8D28AD288C295E508240AF987A0E508450970F3F5A080EFC3
:0100FA0022E3
:06004800E478FFF6D8FD8C
:200026007900E94400601B7A009000FF780175A000E493F2A308B8000205A0D9F4DAF27581
:02004600A0FF19
:20004E007800E84400600A790175A000E4F309D8FC7800E84400600C7900900001E4F0A3B0
:04006E00D8FCD9FAE7
:0D0019007581221200FBE5826003020016D3
:0400FB0075820022E8
:00000001FF
